{"abi":[{"type":"constructor","inputs":[{"name":"token0_","type":"address","internalType":"address"},{"name":"token1_","type":"address","internalType":"address"}],"stateMutability":"nonpayable"},{"type":"function","name":"DOMAIN_SEPARATOR","inputs":[],"outputs":[{"name":"","type":"bytes32","internalType":"bytes32"}],"stateMutability":"view"},{"type":"function","name":"allowance","inputs":[{"name":"","type":"address","internalType":"address"},{"name":"","type":"address","internalType":"address"}],"outputs":[{"name":"","type":"uint256","internalType":"uint256"}],"stateMutability":"view"},{"type":"function","name":"approve","inputs":[{"name":"spender","type":"address","internalType":"address"},{"name":"amount","type":"uint256","internalType":"uint256"}],"outputs":[{"name":"","type":"bool","internalType":"bool"}],"stateMutability":"nonpayable"},{"type":"function","name":"balanceOf","inputs":[{"name":"","type":"address","internalType":"address"}],"outputs":[{"name":"","type":"uint256","internalType":"uint256"}],"stateMutability":"view"},{"type":"function","name":"burn","inputs":[],"outputs":[],"stateMutability":"nonpayable"},{"type":"function","name":"decimals","inputs":[],"outputs":[{"name":"","type":"uint8","internalType":"uint8"}],"stateMutability":"view"},{"type":"function","name":"getReserves","inputs":[],"outputs":[{"name":"","type":"uint112","internalType":"uint112"},{"name":"","type":"uint112","internalType":"uint112"},{"name":"","type":"uint32","internalType":"uint32"}],"stateMutability":"view"},{"type":"function","name":"mint","inputs":[],"outputs":[],"stateMutability":"nonpayable"},{"type":"function","name":"name","inputs":[],"outputs":[{"name":"","type":"string","internalType":"string"}],"stateMutability":"view"},{"type":"function","name":"nonces","inputs":[{"name":"","type":"address","internalType":"address"}],"outputs":[{"name":"","type":"uint256","internalType":"uint256"}],"stateMutability":"view"},{"type":"function","name":"permit","inputs":[{"name":"owner","type":"address","internalType":"address"},{"name":"spender","type":"address","internalType":"address"},{"name":"value","type":"uint256","internalType":"uint256"},{"name":"deadline","type":"uint256","internalType":"uint256"},{"name":"v","type":"uint8","internalType":"uint8"},{"name":"r","type":"bytes32","internalType":"bytes32"},{"name":"s","type":"bytes32","internalType":"bytes32"}],"outputs":[],"stateMutability":"nonpayable"},{"type":"function","name":"symbol","inputs":[],"outputs":[{"name":"","type":"string","internalType":"string"}],"stateMutability":"view"},{"type":"function","name":"sync","inputs":[],"outputs":[],"stateMutability":"nonpayable"},{"type":"function","name":"token0","inputs":[],"outputs":[{"name":"","type":"address","internalType":"address"}],"stateMutability":"view"},{"type":"function","name":"token1","inputs":[],"outputs":[{"name":"","type":"address","internalType":"address"}],"stateMutability":"view"},{"type":"function","name":"totalSupply","inputs":[],"outputs":[{"name":"","type":"uint256","internalType":"uint256"}],"stateMutability":"view"},{"type":"function","name":"transfer","inputs":[{"name":"to","type":"address","internalType":"address"},{"name":"amount","type":"uint256","internalType":"uint256"}],"outputs":[{"name":"","type":"bool","internalType":"bool"}],"stateMutability":"nonpayable"},{"type":"function","name":"transferFrom","inputs":[{"name":"from","type":"address","internalType":"address"},{"name":"to","type":"address","internalType":"address"},{"name":"amount","type":"uint256","internalType":"uint256"}],"outputs":[{"name":"","type":"bool","internalType":"bool"}],"stateMutability":"nonpayable"},{"type":"event","name":"Approval","inputs":[{"name":"owner","type":"address","indexed":true,"internalType":"address"},{"name":"spender","type":"address","indexed":true,"internalType":"address"},{"name":"amount","type":"uint256","indexed":false,"internalType":"uint256"}],"anonymous":false},{"type":"event","name":"Burn","inputs":[{"name":"sender","type":"address","indexed":true,"internalType":"address"},{"name":"amount0","type":"uint256","indexed":false,"internalType":"uint256"},{"name":"amount1","type":"uint256","indexed":false,"internalType":"uint256"}],"anonymous":false},{"type":"event","name":"Mint","inputs":[{"name":"sender","type":"address","indexed":true,"internalType":"address"},{"name":"amount0","type":"uint256","indexed":false,"internalType":"uint256"},{"name":"amount1","type":"uint256","indexed":false,"internalType":"uint256"}],"anonymous":false},{"type":"event","name":"Sync","inputs":[{"name":"reserve0","type":"uint256","indexed":false,"internalType":"uint256"},{"name":"reserve1","type":"uint256","indexed":false,"internalType":"uint256"}],"anonymous":false},{"type":"event","name":"Transfer","inputs":[{"name":"from","type":"address","indexed":true,"internalType":"address"},{"name":"to","type":"address","indexed":true,"internalType":"address"},{"name":"amount","type":"uint256","indexed":false,"internalType":"uint256"}],"anonymous":false},{"type":"error","name":"InsufficientLiquidityBurned","inputs":[]},{"type":"error","name":"InsufficientLiquidityMinted","inputs":[]},{"type":"error","name":"TransferFailed","inputs":[]}],"bytecode":{"object":"0x60e060405234801561001057600080fd5b5060405161184e38038061184e83398101604081905261002f91610199565b6040518060400160405280600f81526020016e2d3ab734b9bbb0b82b19102830b4b960891b815250604051806040016040528060068152602001652d2aa724ab1960d11b81525060128260009081610087919061026b565b506001610094838261026b565b5060ff81166080524660a0526100a86100e3565b60c0525050600680546001600160a01b039485166001600160a01b03199182161790915560078054939094169216919091179091555061039e565b60007f8b73c3c69bb8fe3d512ecc4cf759cc79239f7b179b0ffacaa9a75d522b39400f60006040516101159190610329565b6040805191829003822060208301939093528101919091527fc89efdaa54c0f20c7adf612882df0950f5a951637e0307cdcb4c672f298b8bc660608201524660808201523060a082015260c00160405160208183030381529060405280519060200120905090565b80516001600160a01b038116811461019457600080fd5b919050565b600080604083850312156101ac57600080fd5b6101b58361017d565b91506101c36020840161017d565b90509250929050565b634e487b7160e01b600052604160045260246000fd5b600181811c908216806101f657607f821691505b60208210810361021657634e487b7160e01b600052602260045260246000fd5b50919050565b601f82111561026657806000526020600020601f840160051c810160208510156102435750805b601f840160051c820191505b81811015610263576000815560010161024f565b50505b505050565b81516001600160401b03811115610284576102846101cc565b6102988161029284546101e2565b8461021c565b6020601f8211600181146102cc57600083156102b45750848201515b600019600385901b1c1916600184901b178455610263565b600084815260208120601f198516915b828110156102fc57878501518255602094850194600190920191016102dc565b508482101561031a5786840151600019600387901b60f8161c191681555b50505050600190811b01905550565b6000808354610337816101e2565b60018216801561034e576001811461036357610393565b60ff1983168652811515820286019350610393565b86600052602060002060005b8381101561038b5781548882015260019091019060200161036f565b505081860193505b509195945050505050565b60805160a05160c0516114816103cd600039600061073c01526000610707015260006101f201526114816000f3fe608060405234801561001057600080fd5b50600436106101165760003560e01c806344df8e70116100a2578063a9059cbb11610071578063a9059cbb1461027e578063d21220a714610291578063d505accf146102a4578063dd62ed3e146102b7578063fff6cae9146102e257600080fd5b806344df8e701461022e57806370a08231146102365780637ecebe001461025657806395d89b411461027657600080fd5b80631249c58b116100e95780631249c58b146101b957806318160ddd146101c357806323b872dd146101da578063313ce567146101ed5780633644e5151461022657600080fd5b806306fdde031461011b5780630902f1ac14610139578063095ea7b31461016b5780630dfe16811461018e575b600080fd5b6101236102ea565b604051610130919061111a565b60405180910390f35b600854604080516001600160701b038084168252600160701b9093049092166020830152600090820152606001610130565b61017e610179366004611164565b610378565b6040519015158152602001610130565b6006546101a1906001600160a01b031681565b6040516001600160a01b039091168152602001610130565b6101c16103e5565b005b6101cc60025481565b604051908152602001610130565b61017e6101e836600461118e565b610623565b6102147f000000000000000000000000000000000000000000000000000000000000000081565b60405160ff9091168152602001610130565b6101cc610703565b6101c161075e565b6101cc6102443660046111cb565b60036020526000908152604090205481565b6101cc6102643660046111cb565b60056020526000908152604090205481565b610123610a17565b61017e61028c366004611164565b610a24565b6007546101a1906001600160a01b031681565b6101c16102b23660046111e6565b610a8a565b6101cc6102c5366004611259565b600460209081526000928352604080842090915290825290205481565b6101c1610cd3565b600080546102f79061128c565b80601f01602080910402602001604051908101604052809291908181526020018280546103239061128c565b80156103705780601f1061034557610100808354040283529160200191610370565b820191906000526020600020905b81548152906001019060200180831161035357829003601f168201915b505050505081565b3360008181526004602090815260408083206001600160a01b038716808552925280832085905551919290917f8c5be1e5ebec7d5bd14f71427d1e84f3dd0314c0f7b2291e5b200ac8c7c3b925906103d39086815260200190565b60405180910390a35060015b92915050565b60085460009081906001600160701b0380821691600160701b9004166006546040516370a0823160e01b81523060048201529294509092506000916001600160a01b03909116906370a08231906024016020604051808303816000875af1158015610454573d6000803e3d6000fd5b505050506040513d601f19601f8201168201806040525081019061047891906112c0565b6007546040516370a0823160e01b81523060048201529192506000916001600160a01b03909116906370a08231906024016020604051808303816000875af11580156104c8573d6000803e3d6000fd5b505050506040513d601f19601f820116820180604052508101906104ec91906112c0565b905060006105036001600160701b038616846112ef565b9050600061051a6001600160701b038616846112ef565b9050600060025460000361055b576103e861053d6105388486611302565b610db8565b61054791906112ef565b905061055660006103e8610e28565b6105aa565b6105a7876001600160701b0316600254856105769190611302565b6105809190611319565b876001600160701b0316600254856105989190611302565b6105a29190611319565b610e82565b90505b600081116105cb57604051633489be7560e21b815260040160405180910390fd5b6105d53382610e28565b6105df8585610e9a565b604080518481526020810184905233917f4c209b5fc8ad50758f13e2e1088ba56a560dff690a1c6fef26394f4c03821c4f910160405180910390a250505050505050565b6001600160a01b0383166000908152600460209081526040808320338452909152812054600019811461067f5761065a83826112ef565b6001600160a01b03861660009081526004602090815260408083203384529091529020555b6001600160a01b038516600090815260036020526040812080548592906106a79084906112ef565b90915550506001600160a01b038085166000818152600360205260409081902080548701905551909187169060008051602061142c833981519152906106f09087815260200190565b60405180910390a3506001949350505050565b60007f0000000000000000000000000000000000000000000000000000000000000000461461073957610734610f0b565b905090565b507f000000000000000000000000000000000000000000000000000000000000000090565b6006546040516370a0823160e01b81523060048201526000916001600160a01b0316906370a08231906024016020604051808303816000875af11580156107a9573d6000803e3d6000fd5b505050506040513d601f19601f820116820180604052508101906107cd91906112c0565b6007546040516370a0823160e01b81523060048201529192506000916001600160a01b03909116906370a08231906024016020604051808303816000875af115801561081d573d6000803e3d6000fd5b505050506040513d601f19601f8201168201806040525081019061084191906112c0565b33600090815260036020526040812054600254929350916108628584611302565b61086c9190611319565b90506000600254848461087f9190611302565b6108899190611319565b9050811580610896575080155b156108b45760405163749383ad60e01b815260040160405180910390fd5b6108be3384610fa5565b6006546108d5906001600160a01b03163384611007565b6007546108ec906001600160a01b03163383611007565b6006546040516370a0823160e01b81523060048201526001600160a01b03909116906370a08231906024016020604051808303816000875af1158015610936573d6000803e3d6000fd5b505050506040513d601f19601f8201168201806040525081019061095a91906112c0565b6007546040516370a0823160e01b81523060048201529196506001600160a01b0316906370a08231906024016020604051808303816000875af11580156109a5573d6000803e3d6000fd5b505050506040513d601f19601f820116820180604052508101906109c991906112c0565b93506109d58585610e9a565b604080518381526020810183905233917f49995e5dd6158cf69ad3e9777c46755a1a826a446c6416992167462dad033b2a910160405180910390a25050505050565b600180546102f79061128c565b33600090815260036020526040812080548391908390610a459084906112ef565b90915550506001600160a01b0383166000818152600360205260409081902080548501905551339060008051602061142c833981519152906103d39086815260200190565b42841015610adf5760405162461bcd60e51b815260206004820152601760248201527f5045524d49545f444541444c494e455f4558504952454400000000000000000060448201526064015b60405180910390fd5b60006001610aeb610703565b6001600160a01b038a811660008181526005602090815260409182902080546001810190915582517f6e71edae12b1b97f4d1f60370fef10105fa2faae0126114a169c64845d6126c98184015280840194909452938d166060840152608083018c905260a083019390935260c08083018b90528151808403909101815260e08301909152805192019190912061190160f01b6101008301526101028201929092526101228101919091526101420160408051601f198184030181528282528051602091820120600084529083018083525260ff871690820152606081018590526080810184905260a0016020604051602081039080840390855afa158015610bf7573d6000803e3d6000fd5b5050604051601f1901519150506001600160a01b03811615801590610c2d5750876001600160a01b0316816001600160a01b0316145b610c6a5760405162461bcd60e51b815260206004820152600e60248201526d24a72b20a624a22fa9a4a3a722a960911b6044820152606401610ad6565b6001600160a01b0390811660009081526004602090815260408083208a8516808552908352928190208990555188815291928a16917f8c5be1e5ebec7d5bd14f71427d1e84f3dd0314c0f7b2291e5b200ac8c7c3b925910160405180910390a350505050505050565b6006546040516370a0823160e01b8152306004820152610db6916001600160a01b0316906370a08231906024016020604051808303816000875af1158015610d1f573d6000803e3d6000fd5b505050506040513d601f19601f82011682018060405250810190610d4391906112c0565b6007546040516370a0823160e01b81523060048201526001600160a01b03909116906370a08231906024016020604051808303816000875af1158015610d8d573d6000803e3d6000fd5b505050506040513d601f19601f82011682018060405250810190610db191906112c0565b610e9a565b565b60006003821115610e195750806000610dd2600283611319565b610ddd90600161133b565b90505b81811015610e1357905080600281610df88186611319565b610e02919061133b565b610e0c9190611319565b9050610de0565b50919050565b8115610e23575060015b919050565b8060026000828254610e3a919061133b565b90915550506001600160a01b03821660008181526003602090815260408083208054860190555184815260008051602061142c83398151915291015b60405180910390a35050565b6000818310610e915781610e93565b825b9392505050565b600880546001600160701b03838116600160701b9081026001600160e01b0319909316868316179290921792839055604080518483168152929093041660208201527fcf2aa50876cdfbb541206f89af0ee78d44a2abf8d328e37fa4917f982149848a910160405180910390a15050565b60007f8b73c3c69bb8fe3d512ecc4cf759cc79239f7b179b0ffacaa9a75d522b39400f6000604051610f3d919061134e565b6040805191829003822060208301939093528101919091527fc89efdaa54c0f20c7adf612882df0950f5a951637e0307cdcb4c672f298b8bc660608201524660808201523060a082015260c00160405160208183030381529060405280519060200120905090565b6001600160a01b03821660009081526003602052604081208054839290610fcd9084906112ef565b90915550506002805482900390556040518181526000906001600160a01b0384169060008051602061142c83398151915290602001610e76565b6040516001600160a01b03838116602483015260448201839052600091829186169060640160408051601f198184030181529181526020820180516001600160e01b031663a9059cbb60e01b1790525161106191906113ed565b6000604051808303816000865af19150503d806000811461109e576040519150601f19603f3d011682016040523d82523d6000602084013e6110a3565b606091505b50915091508115806110d157508051158015906110d15750808060200190518101906110cf9190611409565b155b156110ef576040516312171d8360e31b815260040160405180910390fd5b5050505050565b60005b838110156111115781810151838201526020016110f9565b50506000910152565b60208152600082518060208401526111398160408501602087016110f6565b601f01601f19169190910160400192915050565b80356001600160a01b0381168114610e2357600080fd5b6000806040838503121561117757600080fd5b6111808361114d565b946020939093013593505050565b6000806000606084860312156111a357600080fd5b6111ac8461114d565b92506111ba6020850161114d565b929592945050506040919091013590565b6000602082840312156111dd57600080fd5b610e938261114d565b600080600080600080600060e0888a03121561120157600080fd5b61120a8861114d565b96506112186020890161114d565b95506040880135945060608801359350608088013560ff8116811461123c57600080fd5b9699959850939692959460a0840135945060c09093013592915050565b6000806040838503121561126c57600080fd5b6112758361114d565b91506112836020840161114d565b90509250929050565b600181811c908216806112a057607f821691505b602082108103610e1357634e487b7160e01b600052602260045260246000fd5b6000602082840312156112d257600080fd5b5051919050565b634e487b7160e01b600052601160045260246000fd5b818103818111156103df576103df6112d9565b80820281158282048414176103df576103df6112d9565b60008261133657634e487b7160e01b600052601260045260246000fd5b500490565b808201808211156103df576103df6112d9565b6000808354818160011c9050600182168061136a57607f821691505b60208210810361138857634e487b7160e01b84526022600452602484fd5b80801561139c57600181146113b1576113e1565b60ff19841687528215158302870194506113e1565b60008881526020902060005b848110156113d9578154898201526001909101906020016113bd565b505082870194505b50929695505050505050565b600082516113ff8184602087016110f6565b9190910192915050565b60006020828403121561141b57600080fd5b81518015158114610e9357600080fdfeddf252ad1be2c89b69c2b068fc378daa952ba7f163c4a11628f55a4df523b3efa26469706673582212208a9728cbe2399ba60766a6c2e0c557064b8b2a759bd43eaa4ed3dc7bb3981f8b64736f6c634300081a0033","linkReferences":{}},"methodIdentifiers":{"DOMAIN_SEPARATOR()":"3644e515","allowance(address,address)":"dd62ed3e","approve(address,uint256)":"095ea7b3","balanceOf(address)":"70a08231","burn()":"44df8e70","decimals()":"313ce567","getReserves()":"0902f1ac","mint()":"1249c58b","name()":"06fdde03","nonces(address)":"7ecebe00","permit(address,address,uint256,uint256,uint8,bytes32,bytes32)":"d505accf","symbol()":"95d89b41","sync()":"fff6cae9","token0()":"0dfe1681","token1()":"d21220a7","totalSupply()":"18160ddd","transfer(address,uint256)":"a9059cbb","transferFrom(address,address,uint256)":"23b872dd"},"id":24}